{
  "address": "0x5FbDB2315678afecb367f032d93F642f64180aa3",
  "abi": [
    {
      "inputs": [],
      "name": "BuyMeACoffe__SignedUpBefore",
      "type": "error"
    },
    {
      "inputs": [
        {
          "internalType": "address",
          "name": "_address",
          "type": "address"
        }
      ],
      "name": "SearchAccount",
      "outputs": [
        {
          "internalType": "address",
          "name": "",
          "type": "address"
        }
      ],
      "stateMutability": "view",
      "type": "function"
    },
    {
      "inputs": [],
      "name": "SingUp",
      "outputs": [
        {
          "internalType": "address",
          "name": "",
          "type": "address"
        }
      ],
      "stateMutability": "nonpayable",
      "type": "function"
    }
  ],
  "transactionHash": "0x2f590a8a3fedc2b3e41b7b010eae83ad3cb9ac1984dda73c862f1a6b51f8f468",
  "args": [],
  "numDeployments": 1,
  "solcInputHash": "3a61674f672c1648eda72c2b91754cc3",
  "bytecode": "0x608060405234801561001057600080fd5b50611266806100206000396000f3fe608060405234801561001057600080fd5b50600436106100365760003560e01c80633c5d77af1461003b578063d910c2201461006b575b600080fd5b610055600480360381019061005091906102d6565b610089565b6040516100629190610312565b60405180910390f35b610073610135565b6040516100809190610312565b60405180910390f35b6000806000808473ffffffffffffffffffffffffffffffffffffffff1673ffffffffffffffffffffffffffffffffffffffff16815260200190815260200160002060009054906101000a900473ffffffffffffffffffffffffffffffffffffffff169050600073ffffffffffffffffffffffffffffffffffffffff168173ffffffffffffffffffffffffffffffffffffffff160361012b576000915050610130565b809150505b919050565b60008073ffffffffffffffffffffffffffffffffffffffff1661015733610089565b73ffffffffffffffffffffffffffffffffffffffff16146101a4576040517fa386b8a500000000000000000000000000000000000000000000000000000000815260040160405180910390fd5b6000336040516101b390610266565b6101bd9190610312565b604051809103906000f0801580156101d9573d6000803e3d6000fd5b5090506000819050806000803373ffffffffffffffffffffffffffffffffffffffff1673ffffffffffffffffffffffffffffffffffffffff16815260200190815260200160002060006101000a81548173ffffffffffffffffffffffffffffffffffffffff021916908373ffffffffffffffffffffffffffffffffffffffff160217905550809250505090565b610f038061032e83390190565b600080fd5b600073ffffffffffffffffffffffffffffffffffffffff82169050919050565b60006102a382610278565b9050919050565b6102b381610298565b81146102be57600080fd5b50565b6000813590506102d0816102aa565b92915050565b6000602082840312156102ec576102eb610273565b5b60006102fa848285016102c1565b91505092915050565b61030c81610298565b82525050565b60006020820190506103276000830184610303565b9291505056fe60a060405234801561001057600080fd5b50604051610f03380380610f03833981810160405281019061003291906100cf565b8073ffffffffffffffffffffffffffffffffffffffff1660808173ffffffffffffffffffffffffffffffffffffffff1681525050506100fc565b600080fd5b600073ffffffffffffffffffffffffffffffffffffffff82169050919050565b600061009c82610071565b9050919050565b6100ac81610091565b81146100b757600080fd5b50565b6000815190506100c9816100a3565b92915050565b6000602082840312156100e5576100e461006c565b5b60006100f3848285016100ba565b91505092915050565b608051610dd861012b6000396000818160d80152818161016a015281816101c6015261040b0152610dd86000f3fe60806040526004361061003f5760003560e01c80633ccfd60b14610044578063865c517214610062578063893d20e81461008d578063e810d34e146100b8575b600080fd5b61004c6100d4565b60405161005991906105d5565b60405180910390f35b34801561006e57600080fd5b506100776101c2565b6040516100849190610819565b60405180910390f35b34801561009957600080fd5b506100a2610407565b6040516100af919061084a565b60405180910390f35b6100d260048036038101906100cd91906109ae565b61042f565b005b60007f000000000000000000000000000000000000000000000000000000000000000073ffffffffffffffffffffffffffffffffffffffff163373ffffffffffffffffffffffffffffffffffffffff161461012e57600080fd5b60004703610168576040517f079d599c00000000000000000000000000000000000000000000000000000000815260040160405180910390fd5b7f000000000000000000000000000000000000000000000000000000000000000073ffffffffffffffffffffffffffffffffffffffff166108fc479081150290604051600060405180830381858888f19350505050905090565b60607f000000000000000000000000000000000000000000000000000000000000000073ffffffffffffffffffffffffffffffffffffffff163373ffffffffffffffffffffffffffffffffffffffff161461021c57600080fd5b6000805480602002602001604051908101604052809291908181526020016000905b828210156103fe57838290600052602060002090600502016040518060a00160405290816000820160009054906101000a900473ffffffffffffffffffffffffffffffffffffffff1673ffffffffffffffffffffffffffffffffffffffff1673ffffffffffffffffffffffffffffffffffffffff16815260200160018201548152602001600282015481526020016003820180546102db90610a55565b80601f016020809104026020016040519081016040528092919081815260200182805461030790610a55565b80156103545780601f1061032957610100808354040283529160200191610354565b820191906000526020600020905b81548152906001019060200180831161033757829003601f168201915b5050505050815260200160048201805461036d90610a55565b80601f016020809104026020016040519081016040528092919081815260200182805461039990610a55565b80156103e65780601f106103bb576101008083540402835291602001916103e6565b820191906000526020600020905b8154815290600101906020018083116103c957829003601f168201915b5050505050815250508152602001906001019061023e565b50505050905090565b60007f0000000000000000000000000000000000000000000000000000000000000000905090565b633b9aca0034101561046d576040517f8761249900000000000000000000000000000000000000000000000000000000815260040160405180910390fd5b60006040518060a001604052803373ffffffffffffffffffffffffffffffffffffffff168152602001428152602001348152602001848152602001838152509050600081908060018154018082558091505060019003906000526020600020906005020160009091909190915060008201518160000160006101000a81548173ffffffffffffffffffffffffffffffffffffffff021916908373ffffffffffffffffffffffffffffffffffffffff1602179055506020820151816001015560408201518160020155606082015181600301908161054a9190610c32565b5060808201518160040190816105609190610c32565b5050503373ffffffffffffffffffffffffffffffffffffffff167f32ac190d2b35e20890464b0e7f34213b1f3aaa10957b2f9129b673b6e6464db94285856040516105ad93929190610d5d565b60405180910390a2505050565b60008115159050919050565b6105cf816105ba565b82525050565b60006020820190506105ea60008301846105c6565b92915050565b600081519050919050565b600082825260208201905092915050565b6000819050602082019050919050565b600073ffffffffffffffffffffffffffffffffffffffff82169050919050565b60006106478261061c565b9050919050565b6106578161063c565b82525050565b6000819050919050565b6106708161065d565b82525050565b600081519050919050565b600082825260208201905092915050565b60005b838110156106b0578082015181840152602081019050610695565b60008484015250505050565b6000601f19601f8301169050919050565b60006106d882610676565b6106e28185610681565b93506106f2818560208601610692565b6106fb816106bc565b840191505092915050565b600060a08301600083015161071e600086018261064e565b5060208301516107316020860182610667565b5060408301516107446040860182610667565b506060830151848203606086015261075c82826106cd565b9150506080830151848203608086015261077682826106cd565b9150508091505092915050565b600061078f8383610706565b905092915050565b6000602082019050919050565b60006107af826105f0565b6107b981856105fb565b9350836020820285016107cb8561060c565b8060005b8581101561080757848403895281516107e88582610783565b94506107f383610797565b925060208a019950506001810190506107cf565b50829750879550505050505092915050565b6000602082019050818103600083015261083381846107a4565b905092915050565b6108448161063c565b82525050565b600060208201905061085f600083018461083b565b92915050565b6000604051905090565b600080fd5b600080fd5b600080fd5b600080fd5b7f4e487b7100000000000000000000000000000000000000000000000000000000600052604160045260246000fd5b6108bb826106bc565b810181811067ffffffffffffffff821117156108da576108d9610883565b5b80604052505050565b60006108ed610865565b90506108f982826108b2565b919050565b600067ffffffffffffffff82111561091957610918610883565b5b610922826106bc565b9050602081019050919050565b82818337600083830152505050565b600061095161094c846108fe565b6108e3565b90508281526020810184848401111561096d5761096c61087e565b5b61097884828561092f565b509392505050565b600082601f83011261099557610994610879565b5b81356109a584826020860161093e565b91505092915050565b600080604083850312156109c5576109c461086f565b5b600083013567ffffffffffffffff8111156109e3576109e2610874565b5b6109ef85828601610980565b925050602083013567ffffffffffffffff811115610a1057610a0f610874565b5b610a1c85828601610980565b9150509250929050565b7f4e487b7100000000000000000000000000000000000000000000000000000000600052602260045260246000fd5b60006002820490506001821680610a6d57607f821691505b602082108103610a8057610a7f610a26565b5b50919050565b60008190508160005260206000209050919050565b60006020601f8301049050919050565b600082821b905092915050565b600060088302610ae87fffffffffffffffffffffffffffffffffffffffffffffffffffffffffffffffff82610aab565b610af28683610aab565b95508019841693508086168417925050509392505050565b6000819050919050565b6000610b2f610b2a610b258461065d565b610b0a565b61065d565b9050919050565b6000819050919050565b610b4983610b14565b610b5d610b5582610b36565b848454610ab8565b825550505050565b600090565b610b72610b65565b610b7d818484610b40565b505050565b5b81811015610ba157610b96600082610b6a565b600181019050610b83565b5050565b601f821115610be657610bb781610a86565b610bc084610a9b565b81016020851015610bcf578190505b610be3610bdb85610a9b565b830182610b82565b50505b505050565b600082821c905092915050565b6000610c0960001984600802610beb565b1980831691505092915050565b6000610c228383610bf8565b9150826002028217905092915050565b610c3b82610676565b67ffffffffffffffff811115610c5457610c53610883565b5b610c5e8254610a55565b610c69828285610ba5565b600060209050601f831160018114610c9c5760008415610c8a578287015190505b610c948582610c16565b865550610cfc565b601f198416610caa86610a86565b60005b82811015610cd257848901518255600182019150602085019450602081019050610cad565b86831015610cef5784890151610ceb601f891682610bf8565b8355505b6001600288020188555050505b505050505050565b610d0d8161065d565b82525050565b600082825260208201905092915050565b6000610d2f82610676565b610d398185610d13565b9350610d49818560208601610692565b610d52816106bc565b840191505092915050565b6000606082019050610d726000830186610d04565b8181036020830152610d848185610d24565b90508181036040830152610d988184610d24565b905094935050505056fea26469706673582212209ace2c82fad252aa094e183b95950ea2494a5972ff39867dcf4687ee0757b23264736f6c63430008120033a2646970667358221220481d229b15dbfc699df3b3b57990cb92ece5f6de7ab22f778ae15ad69ff9dec864736f6c63430008120033",
  "devdoc": {
    "author": "mohammad norouzi",
    "kind": "dev",
    "methods": {},
    "title": "BuyMeACoffee contract",
    "version": 1
  },
  "userdoc": {
    "kind": "user",
    "methods": {},
    "notice": "This contract manages the client contract address",
    "version": 1
  },
  "storageLayout": {
    "storage": [
      {
        "astId": 10,
        "contract": "contracts/BuyMeACoffee.sol:BuyMeACoffee",
        "label": "s_person",
        "offset": 0,
        "slot": "0",
        "type": "t_mapping(t_address,t_address)"
      }
    ],
    "types": {
      "t_address": {
        "encoding": "inplace",
        "label": "address",
        "numberOfBytes": "20"
      },
      "t_mapping(t_address,t_address)": {
        "encoding": "mapping",
        "key": "t_address",
        "label": "mapping(address => address)",
        "numberOfBytes": "32",
        "value": "t_address"
      }
    }
  }
}