{
  "address": "0xd168A2fffFC54129ca5c60e6C1F445F102327E21",
  "abi": [
    {
      "inputs": [],
      "name": "BuyMeACoffe__BalanceIsZero",
      "type": "error"
    },
    {
      "inputs": [],
      "name": "BuyMeACoffe__NotSignedUpBefore",
      "type": "error"
    },
    {
      "inputs": [],
      "name": "BuyMeACoffe__SignedUpBefore",
      "type": "error"
    },
    {
      "inputs": [],
      "name": "BuyMeACoffe__TransferFaild",
      "type": "error"
    },
    {
      "inputs": [],
      "name": "BuyMeACoffe__ValueMustBeMoreThanOneGwei",
      "type": "error"
    },
    {
      "anonymous": false,
      "inputs": [
        {
          "indexed": true,
          "internalType": "address",
          "name": "to",
          "type": "address"
        },
        {
          "indexed": true,
          "internalType": "address",
          "name": "from",
          "type": "address"
        },
        {
          "indexed": true,
          "internalType": "uint256",
          "name": "timestamp",
          "type": "uint256"
        },
        {
          "indexed": false,
          "internalType": "uint256",
          "name": "amount",
          "type": "uint256"
        },
        {
          "indexed": false,
          "internalType": "string",
          "name": "name",
          "type": "string"
        },
        {
          "indexed": false,
          "internalType": "string",
          "name": "message",
          "type": "string"
        }
      ],
      "name": "MemoEvent",
      "type": "event"
    },
    {
      "anonymous": false,
      "inputs": [
        {
          "indexed": true,
          "internalType": "address",
          "name": "from",
          "type": "address"
        },
        {
          "indexed": false,
          "internalType": "uint256",
          "name": "timestamp",
          "type": "uint256"
        }
      ],
      "name": "SingUpEvent",
      "type": "event"
    },
    {
      "inputs": [
        {
          "internalType": "string",
          "name": "name",
          "type": "string"
        },
        {
          "internalType": "string",
          "name": "message",
          "type": "string"
        },
        {
          "internalType": "address",
          "name": "to",
          "type": "address"
        }
      ],
      "name": "buyACoffee",
      "outputs": [],
      "stateMutability": "payable",
      "type": "function"
    },
    {
      "inputs": [],
      "name": "getBalance",
      "outputs": [
        {
          "internalType": "uint256",
          "name": "",
          "type": "uint256"
        }
      ],
      "stateMutability": "view",
      "type": "function"
    },
    {
      "inputs": [],
      "name": "getLastMemo",
      "outputs": [
        {
          "components": [
            {
              "internalType": "address",
              "name": "from",
              "type": "address"
            },
            {
              "internalType": "uint256",
              "name": "timestamp",
              "type": "uint256"
            },
            {
              "internalType": "uint256",
              "name": "amount",
              "type": "uint256"
            },
            {
              "internalType": "string",
              "name": "name",
              "type": "string"
            },
            {
              "internalType": "string",
              "name": "message",
              "type": "string"
            }
          ],
          "internalType": "struct BuyMeACoffee.Memo",
          "name": "",
          "type": "tuple"
        }
      ],
      "stateMutability": "view",
      "type": "function"
    },
    {
      "inputs": [
        {
          "internalType": "address",
          "name": "_address",
          "type": "address"
        }
      ],
      "name": "getUser",
      "outputs": [
        {
          "internalType": "address",
          "name": "",
          "type": "address"
        }
      ],
      "stateMutability": "view",
      "type": "function"
    },
    {
      "inputs": [],
      "name": "singUp",
      "outputs": [],
      "stateMutability": "nonpayable",
      "type": "function"
    },
    {
      "inputs": [],
      "name": "withdraw",
      "outputs": [],
      "stateMutability": "payable",
      "type": "function"
    }
  ],
  "transactionHash": "0x7123966f6858ad2e74b6c1e62d974d1785d51694023b34104212642550b979c2",
  "args": [],
  "numDeployments": 4,
  "solcInputHash": "22f2a5ed53cac17580b20ea20536cbef",
  "bytecode": "0x608060405234801561001057600080fd5b506113a5806100206000396000f3fe6080604052600436106100555760003560e01c80630c4995581461005a57806312065fe01461007657806314dde3cb146100a15780633ccfd60b146100b85780636f77926b146100c2578063acff45e9146100ff575b600080fd5b610074600480360381019061006f9190610d4d565b61012a565b005b34801561008257600080fd5b5061008b61037b565b6040516100989190610df1565b60405180910390f35b3480156100ad57600080fd5b506100b661043a565b005b6100c0610683565b005b3480156100ce57600080fd5b506100e960048036038101906100e49190610e0c565b610834565b6040516100f69190610e48565b60405180910390f35b34801561010b57600080fd5b5061011461089f565b6040516101219190610f7d565b60405180910390f35b80600061013682610834565b9050600073ffffffffffffffffffffffffffffffffffffffff168173ffffffffffffffffffffffffffffffffffffffff160361019e576040517f0520de9000000000000000000000000000000000000000000000000000000000815260040160405180910390fd5b633b9aca003410156101dc576040517fd8da6c3000000000000000000000000000000000000000000000000000000000815260040160405180910390fd5b346000808573ffffffffffffffffffffffffffffffffffffffff1673ffffffffffffffffffffffffffffffffffffffff168152602001908152602001600020600101600082825461022d9190610fce565b9250508190555061023f858534610afc565b6000808573ffffffffffffffffffffffffffffffffffffffff1673ffffffffffffffffffffffffffffffffffffffff16815260200190815260200160002060020160008201518160000160006101000a81548173ffffffffffffffffffffffffffffffffffffffff021916908373ffffffffffffffffffffffffffffffffffffffff160217905550602082015181600101556040820151816002015560608201518160030190816102f0919061120e565b506080820151816004019081610306919061120e565b50905050423373ffffffffffffffffffffffffffffffffffffffff168473ffffffffffffffffffffffffffffffffffffffff167fd11821dbf66364cfc76a3119ed508bee7e9b0c309f8ffd133657e455606a467734898960405161036c9392919061132a565b60405180910390a45050505050565b600033600061038982610834565b9050600073ffffffffffffffffffffffffffffffffffffffff168173ffffffffffffffffffffffffffffffffffffffff16036103f1576040517f0520de9000000000000000000000000000000000000000000000000000000000815260040160405180910390fd5b6000803373ffffffffffffffffffffffffffffffffffffffff1673ffffffffffffffffffffffffffffffffffffffff168152602001908152602001600020600101549250505090565b600061044533610834565b9050600073ffffffffffffffffffffffffffffffffffffffff168173ffffffffffffffffffffffffffffffffffffffff16146104ad576040517fa386b8a500000000000000000000000000000000000000000000000000000000815260040160405180910390fd5b600060405180606001604052803373ffffffffffffffffffffffffffffffffffffffff1681526020016000815260200161050760405180602001604052806000815250604051806020016040528060008152506000610afc565b8152509050806000803373ffffffffffffffffffffffffffffffffffffffff1673ffffffffffffffffffffffffffffffffffffffff16815260200190815260200160002060008201518160000160006101000a81548173ffffffffffffffffffffffffffffffffffffffff021916908373ffffffffffffffffffffffffffffffffffffffff1602179055506020820151816001015560408201518160020160008201518160000160006101000a81548173ffffffffffffffffffffffffffffffffffffffff021916908373ffffffffffffffffffffffffffffffffffffffff16021790555060208201518160010155604082015181600201556060820151816003019081610615919061120e565b50608082015181600401908161062b919061120e565b5050509050503373ffffffffffffffffffffffffffffffffffffffff167fc61110b9f153350c03fa5e872a75db3e735d366d387c364d79dcef7fdb309fe0426040516106779190610df1565b60405180910390a25050565b33600061068f82610834565b9050600073ffffffffffffffffffffffffffffffffffffffff168173ffffffffffffffffffffffffffffffffffffffff16036106f7576040517f0520de9000000000000000000000000000000000000000000000000000000000815260040160405180910390fd5b60008060003373ffffffffffffffffffffffffffffffffffffffff1673ffffffffffffffffffffffffffffffffffffffff16815260200190815260200160002060010154905060008103610777576040517fc4bbb36b00000000000000000000000000000000000000000000000000000000815260040160405180910390fd5b60008060003373ffffffffffffffffffffffffffffffffffffffff1673ffffffffffffffffffffffffffffffffffffffff1681526020019081526020016000206001018190555060003373ffffffffffffffffffffffffffffffffffffffff166108fc839081150290604051600060405180830381858888f1935050505090508061082e576040517fb71e489800000000000000000000000000000000000000000000000000000000815260040160405180910390fd5b50505050565b60008060008373ffffffffffffffffffffffffffffffffffffffff1673ffffffffffffffffffffffffffffffffffffffff16815260200190815260200160002060000160009054906101000a900473ffffffffffffffffffffffffffffffffffffffff169050919050565b6108a7610b50565b3360006108b382610834565b9050600073ffffffffffffffffffffffffffffffffffffffff168173ffffffffffffffffffffffffffffffffffffffff160361091b576040517f0520de9000000000000000000000000000000000000000000000000000000000815260040160405180910390fd5b6000803373ffffffffffffffffffffffffffffffffffffffff1673ffffffffffffffffffffffffffffffffffffffff1681526020019081526020016000206002016040518060a00160405290816000820160009054906101000a900473ffffffffffffffffffffffffffffffffffffffff1673ffffffffffffffffffffffffffffffffffffffff1673ffffffffffffffffffffffffffffffffffffffff16815260200160018201548152602001600282015481526020016003820180546109e190611031565b80601f0160208091040260200160405190810160405280929190818152602001828054610a0d90611031565b8015610a5a5780601f10610a2f57610100808354040283529160200191610a5a565b820191906000526020600020905b815481529060010190602001808311610a3d57829003601f168201915b50505050508152602001600482018054610a7390611031565b80601f0160208091040260200160405190810160405280929190818152602001828054610a9f90611031565b8015610aec5780601f10610ac157610100808354040283529160200191610aec565b820191906000526020600020905b815481529060010190602001808311610acf57829003601f168201915b5050505050815250509250505090565b610b04610b50565b60006040518060a001604052803373ffffffffffffffffffffffffffffffffffffffff168152602001428152602001848152602001868152602001858152509050809150509392505050565b6040518060a00160405280600073ffffffffffffffffffffffffffffffffffffffff168152602001600081526020016000815260200160608152602001606081525090565b6000604051905090565b600080fd5b600080fd5b600080fd5b600080fd5b6000601f19601f8301169050919050565b7f4e487b7100000000000000000000000000000000000000000000000000000000600052604160045260246000fd5b610bfc82610bb3565b810181811067ffffffffffffffff82111715610c1b57610c1a610bc4565b5b80604052505050565b6000610c2e610b95565b9050610c3a8282610bf3565b919050565b600067ffffffffffffffff821115610c5a57610c59610bc4565b5b610c6382610bb3565b9050602081019050919050565b82818337600083830152505050565b6000610c92610c8d84610c3f565b610c24565b905082815260208101848484011115610cae57610cad610bae565b5b610cb9848285610c70565b509392505050565b600082601f830112610cd657610cd5610ba9565b5b8135610ce6848260208601610c7f565b91505092915050565b600073ffffffffffffffffffffffffffffffffffffffff82169050919050565b6000610d1a82610cef565b9050919050565b610d2a81610d0f565b8114610d3557600080fd5b50565b600081359050610d4781610d21565b92915050565b600080600060608486031215610d6657610d65610b9f565b5b600084013567ffffffffffffffff811115610d8457610d83610ba4565b5b610d9086828701610cc1565b935050602084013567ffffffffffffffff811115610db157610db0610ba4565b5b610dbd86828701610cc1565b9250506040610dce86828701610d38565b9150509250925092565b6000819050919050565b610deb81610dd8565b82525050565b6000602082019050610e066000830184610de2565b92915050565b600060208284031215610e2257610e21610b9f565b5b6000610e3084828501610d38565b91505092915050565b610e4281610d0f565b82525050565b6000602082019050610e5d6000830184610e39565b92915050565b610e6c81610d0f565b82525050565b610e7b81610dd8565b82525050565b600081519050919050565b600082825260208201905092915050565b60005b83811015610ebb578082015181840152602081019050610ea0565b60008484015250505050565b6000610ed282610e81565b610edc8185610e8c565b9350610eec818560208601610e9d565b610ef581610bb3565b840191505092915050565b600060a083016000830151610f186000860182610e63565b506020830151610f2b6020860182610e72565b506040830151610f3e6040860182610e72565b5060608301518482036060860152610f568282610ec7565b91505060808301518482036080860152610f708282610ec7565b9150508091505092915050565b60006020820190508181036000830152610f978184610f00565b905092915050565b7f4e487b7100000000000000000000000000000000000000000000000000000000600052601160045260246000fd5b6000610fd982610dd8565b9150610fe483610dd8565b9250828201905080821115610ffc57610ffb610f9f565b5b92915050565b7f4e487b7100000000000000000000000000000000000000000000000000000000600052602260045260246000fd5b6000600282049050600182168061104957607f821691505b60208210810361105c5761105b611002565b5b50919050565b60008190508160005260206000209050919050565b60006020601f8301049050919050565b600082821b905092915050565b6000600883026110c47fffffffffffffffffffffffffffffffffffffffffffffffffffffffffffffffff82611087565b6110ce8683611087565b95508019841693508086168417925050509392505050565b6000819050919050565b600061110b61110661110184610dd8565b6110e6565b610dd8565b9050919050565b6000819050919050565b611125836110f0565b61113961113182611112565b848454611094565b825550505050565b600090565b61114e611141565b61115981848461111c565b505050565b5b8181101561117d57611172600082611146565b60018101905061115f565b5050565b601f8211156111c25761119381611062565b61119c84611077565b810160208510156111ab578190505b6111bf6111b785611077565b83018261115e565b50505b505050565b600082821c905092915050565b60006111e5600019846008026111c7565b1980831691505092915050565b60006111fe83836111d4565b9150826002028217905092915050565b61121782610e81565b67ffffffffffffffff8111156112305761122f610bc4565b5b61123a8254611031565b611245828285611181565b600060209050601f8311600181146112785760008415611266578287015190505b61127085826111f2565b8655506112d8565b601f19841661128686611062565b60005b828110156112ae57848901518255600182019150602085019450602081019050611289565b868310156112cb57848901516112c7601f8916826111d4565b8355505b6001600288020188555050505b505050505050565b600082825260208201905092915050565b60006112fc82610e81565b61130681856112e0565b9350611316818560208601610e9d565b61131f81610bb3565b840191505092915050565b600060608201905061133f6000830186610de2565b818103602083015261135181856112f1565b9050818103604083015261136581846112f1565b905094935050505056fea2646970667358221220f6ff1576acf59f45b7e4b4943761a8ad3e07061e436e785e36b7bf44645d321064736f6c63430008130033",
  "devdoc": {
    "author": "mohammad norouzi",
    "kind": "dev",
    "methods": {},
    "stateVariables": {
      "MINIMUN_COFFEE_PRICE": {
        "details": "set a minimum amount for coffe price"
      },
      "s_users": {
        "details": "Mapping of address to users struct"
      }
    },
    "title": "BuyMeACoffee contract",
    "version": 1
  },
  "userdoc": {
    "kind": "user",
    "methods": {},
    "notice": "This contract implements the BuyMeACoffee contract and its functionality as simple as possible",
    "version": 1
  },
  "storageLayout": {
    "storage": [
      {
        "astId": 43,
        "contract": "contracts/BuyMeACoffee.sol:BuyMeACoffee",
        "label": "s_users",
        "offset": 0,
        "slot": "0",
        "type": "t_mapping(t_address,t_struct(User)22_storage)"
      }
    ],
    "types": {
      "t_address": {
        "encoding": "inplace",
        "label": "address",
        "numberOfBytes": "20"
      },
      "t_mapping(t_address,t_struct(User)22_storage)": {
        "encoding": "mapping",
        "key": "t_address",
        "label": "mapping(address => struct BuyMeACoffee.User)",
        "numberOfBytes": "32",
        "value": "t_struct(User)22_storage"
      },
      "t_string_storage": {
        "encoding": "bytes",
        "label": "string",
        "numberOfBytes": "32"
      },
      "t_struct(Memo)33_storage": {
        "encoding": "inplace",
        "label": "struct BuyMeACoffee.Memo",
        "members": [
          {
            "astId": 24,
            "contract": "contracts/BuyMeACoffee.sol:BuyMeACoffee",
            "label": "from",
            "offset": 0,
            "slot": "0",
            "type": "t_address"
          },
          {
            "astId": 26,
            "contract": "contracts/BuyMeACoffee.sol:BuyMeACoffee",
            "label": "timestamp",
            "offset": 0,
            "slot": "1",
            "type": "t_uint256"
          },
          {
            "astId": 28,
            "contract": "contracts/BuyMeACoffee.sol:BuyMeACoffee",
            "label": "amount",
            "offset": 0,
            "slot": "2",
            "type": "t_uint256"
          },
          {
            "astId": 30,
            "contract": "contracts/BuyMeACoffee.sol:BuyMeACoffee",
            "label": "name",
            "offset": 0,
            "slot": "3",
            "type": "t_string_storage"
          },
          {
            "astId": 32,
            "contract": "contracts/BuyMeACoffee.sol:BuyMeACoffee",
            "label": "message",
            "offset": 0,
            "slot": "4",
            "type": "t_string_storage"
          }
        ],
        "numberOfBytes": "160"
      },
      "t_struct(User)22_storage": {
        "encoding": "inplace",
        "label": "struct BuyMeACoffee.User",
        "members": [
          {
            "astId": 16,
            "contract": "contracts/BuyMeACoffee.sol:BuyMeACoffee",
            "label": "userAddress",
            "offset": 0,
            "slot": "0",
            "type": "t_address"
          },
          {
            "astId": 18,
            "contract": "contracts/BuyMeACoffee.sol:BuyMeACoffee",
            "label": "userBalance",
            "offset": 0,
            "slot": "1",
            "type": "t_uint256"
          },
          {
            "astId": 21,
            "contract": "contracts/BuyMeACoffee.sol:BuyMeACoffee",
            "label": "lastMemo",
            "offset": 0,
            "slot": "2",
            "type": "t_struct(Memo)33_storage"
          }
        ],
        "numberOfBytes": "224"
      },
      "t_uint256": {
        "encoding": "inplace",
        "label": "uint256",
        "numberOfBytes": "32"
      }
    }
  }
}