{
  "address": "0x64A0C141D14cA5AB12dDd7f19ac40B4CeEb402e4",
  "abi": [
    {
      "inputs": [],
      "name": "BuyMeACoffe__BalanceIsZero",
      "type": "error"
    },
    {
      "inputs": [],
      "name": "BuyMeACoffe__NotSignedUpBefore",
      "type": "error"
    },
    {
      "inputs": [],
      "name": "BuyMeACoffe__SignedUpBefore",
      "type": "error"
    },
    {
      "inputs": [],
      "name": "BuyMeACoffe__TransferFaild",
      "type": "error"
    },
    {
      "inputs": [],
      "name": "BuyMeACoffe__ValueMustBeMoreThanOneGwei",
      "type": "error"
    },
    {
      "anonymous": false,
      "inputs": [
        {
          "indexed": true,
          "internalType": "address",
          "name": "from",
          "type": "address"
        },
        {
          "indexed": true,
          "internalType": "uint256",
          "name": "timestamp",
          "type": "uint256"
        },
        {
          "indexed": false,
          "internalType": "uint256",
          "name": "amount",
          "type": "uint256"
        },
        {
          "indexed": false,
          "internalType": "string",
          "name": "name",
          "type": "string"
        },
        {
          "indexed": false,
          "internalType": "string",
          "name": "message",
          "type": "string"
        }
      ],
      "name": "MemoEvent",
      "type": "event"
    },
    {
      "anonymous": false,
      "inputs": [
        {
          "indexed": true,
          "internalType": "address",
          "name": "from",
          "type": "address"
        },
        {
          "indexed": false,
          "internalType": "uint256",
          "name": "timestamp",
          "type": "uint256"
        }
      ],
      "name": "SingUpEvent",
      "type": "event"
    },
    {
      "inputs": [
        {
          "internalType": "string",
          "name": "name",
          "type": "string"
        },
        {
          "internalType": "string",
          "name": "message",
          "type": "string"
        },
        {
          "internalType": "address",
          "name": "to",
          "type": "address"
        }
      ],
      "name": "buyACoffee",
      "outputs": [],
      "stateMutability": "payable",
      "type": "function"
    },
    {
      "inputs": [],
      "name": "getBalance",
      "outputs": [
        {
          "internalType": "uint256",
          "name": "",
          "type": "uint256"
        }
      ],
      "stateMutability": "view",
      "type": "function"
    },
    {
      "inputs": [],
      "name": "getLastMemo",
      "outputs": [
        {
          "components": [
            {
              "internalType": "address",
              "name": "from",
              "type": "address"
            },
            {
              "internalType": "uint256",
              "name": "timestamp",
              "type": "uint256"
            },
            {
              "internalType": "uint256",
              "name": "amount",
              "type": "uint256"
            },
            {
              "internalType": "string",
              "name": "name",
              "type": "string"
            },
            {
              "internalType": "string",
              "name": "message",
              "type": "string"
            }
          ],
          "internalType": "struct BuyMeACoffee.Memo",
          "name": "",
          "type": "tuple"
        }
      ],
      "stateMutability": "view",
      "type": "function"
    },
    {
      "inputs": [],
      "name": "singUp",
      "outputs": [],
      "stateMutability": "nonpayable",
      "type": "function"
    },
    {
      "inputs": [],
      "name": "withdraw",
      "outputs": [],
      "stateMutability": "payable",
      "type": "function"
    }
  ],
  "transactionHash": "0x14f03c8672a998ba5476520757880e39b0c2484040173395c9a7c338945950c7",
  "args": [],
  "numDeployments": 1,
  "solcInputHash": "a045e5605e0dfaf3c423f2df5c0bc978",
  "bytecode": "0x608060405234801561001057600080fd5b506112e3806100206000396000f3fe60806040526004361061004a5760003560e01c80630c4995581461004f57806312065fe01461006b57806314dde3cb146100965780633ccfd60b146100ad578063acff45e9146100b7575b600080fd5b61006960048036038101906100649190610ce2565b6100e2565b005b34801561007757600080fd5b5061008061031c565b60405161008d9190610d86565b60405180910390f35b3480156100a257600080fd5b506100ab6103db565b005b6100b5610624565b005b3480156100c357600080fd5b506100cc6107c9565b6040516100d99190610ebb565b60405180910390f35b8060006100ee82610a26565b9050600073ffffffffffffffffffffffffffffffffffffffff168173ffffffffffffffffffffffffffffffffffffffff1603610156576040517f0520de9000000000000000000000000000000000000000000000000000000000815260040160405180910390fd5b633b9aca00341015610194576040517fd8da6c3000000000000000000000000000000000000000000000000000000000815260040160405180910390fd5b346000808573ffffffffffffffffffffffffffffffffffffffff1673ffffffffffffffffffffffffffffffffffffffff16815260200190815260200160002060010160008282546101e59190610f0c565b925050819055506101f7858534610a91565b6000808573ffffffffffffffffffffffffffffffffffffffff1673ffffffffffffffffffffffffffffffffffffffff16815260200190815260200160002060020160008201518160000160006101000a81548173ffffffffffffffffffffffffffffffffffffffff021916908373ffffffffffffffffffffffffffffffffffffffff160217905550602082015181600101556040820151816002015560608201518160030190816102a8919061114c565b5060808201518160040190816102be919061114c565b50905050423373ffffffffffffffffffffffffffffffffffffffff167ff0d123b45f5c94126649bd9d784d02a6cc3c96a6f05ff7f3df0834e05b1538e034888860405161030d93929190611268565b60405180910390a35050505050565b600033600061032a82610a26565b9050600073ffffffffffffffffffffffffffffffffffffffff168173ffffffffffffffffffffffffffffffffffffffff1603610392576040517f0520de9000000000000000000000000000000000000000000000000000000000815260040160405180910390fd5b6000803373ffffffffffffffffffffffffffffffffffffffff1673ffffffffffffffffffffffffffffffffffffffff168152602001908152602001600020600101549250505090565b60006103e633610a26565b9050600073ffffffffffffffffffffffffffffffffffffffff168173ffffffffffffffffffffffffffffffffffffffff161461044e576040517fa386b8a500000000000000000000000000000000000000000000000000000000815260040160405180910390fd5b600060405180606001604052803373ffffffffffffffffffffffffffffffffffffffff168152602001600081526020016104a860405180602001604052806000815250604051806020016040528060008152506000610a91565b8152509050806000803373ffffffffffffffffffffffffffffffffffffffff1673ffffffffffffffffffffffffffffffffffffffff16815260200190815260200160002060008201518160000160006101000a81548173ffffffffffffffffffffffffffffffffffffffff021916908373ffffffffffffffffffffffffffffffffffffffff1602179055506020820151816001015560408201518160020160008201518160000160006101000a81548173ffffffffffffffffffffffffffffffffffffffff021916908373ffffffffffffffffffffffffffffffffffffffff160217905550602082015181600101556040820151816002015560608201518160030190816105b6919061114c565b5060808201518160040190816105cc919061114c565b5050509050503373ffffffffffffffffffffffffffffffffffffffff167fc61110b9f153350c03fa5e872a75db3e735d366d387c364d79dcef7fdb309fe0426040516106189190610d86565b60405180910390a25050565b33600061063082610a26565b9050600073ffffffffffffffffffffffffffffffffffffffff168173ffffffffffffffffffffffffffffffffffffffff1603610698576040517f0520de9000000000000000000000000000000000000000000000000000000000815260040160405180910390fd5b60008060003373ffffffffffffffffffffffffffffffffffffffff1673ffffffffffffffffffffffffffffffffffffffff1681526020019081526020016000206001015403610713576040517fc4bbb36b00000000000000000000000000000000000000000000000000000000815260040160405180910390fd5b60003373ffffffffffffffffffffffffffffffffffffffff166108fc6000803373ffffffffffffffffffffffffffffffffffffffff1673ffffffffffffffffffffffffffffffffffffffff168152602001908152602001600020600101549081150290604051600060405180830381858888f193505050509050806107c4576040517fb71e489800000000000000000000000000000000000000000000000000000000815260040160405180910390fd5b505050565b6107d1610ae5565b3360006107dd82610a26565b9050600073ffffffffffffffffffffffffffffffffffffffff168173ffffffffffffffffffffffffffffffffffffffff1603610845576040517f0520de9000000000000000000000000000000000000000000000000000000000815260040160405180910390fd5b6000803373ffffffffffffffffffffffffffffffffffffffff1673ffffffffffffffffffffffffffffffffffffffff1681526020019081526020016000206002016040518060a00160405290816000820160009054906101000a900473ffffffffffffffffffffffffffffffffffffffff1673ffffffffffffffffffffffffffffffffffffffff1673ffffffffffffffffffffffffffffffffffffffff168152602001600182015481526020016002820154815260200160038201805461090b90610f6f565b80601f016020809104026020016040519081016040528092919081815260200182805461093790610f6f565b80156109845780601f1061095957610100808354040283529160200191610984565b820191906000526020600020905b81548152906001019060200180831161096757829003601f168201915b5050505050815260200160048201805461099d90610f6f565b80601f01602080910402602001604051908101604052809291908181526020018280546109c990610f6f565b8015610a165780601f106109eb57610100808354040283529160200191610a16565b820191906000526020600020905b8154815290600101906020018083116109f957829003601f168201915b5050505050815250509250505090565b60008060008373ffffffffffffffffffffffffffffffffffffffff1673ffffffffffffffffffffffffffffffffffffffff16815260200190815260200160002060000160009054906101000a900473ffffffffffffffffffffffffffffffffffffffff169050919050565b610a99610ae5565b60006040518060a001604052803373ffffffffffffffffffffffffffffffffffffffff168152602001428152602001848152602001868152602001858152509050809150509392505050565b6040518060a00160405280600073ffffffffffffffffffffffffffffffffffffffff168152602001600081526020016000815260200160608152602001606081525090565b6000604051905090565b600080fd5b600080fd5b600080fd5b600080fd5b6000601f19601f8301169050919050565b7f4e487b7100000000000000000000000000000000000000000000000000000000600052604160045260246000fd5b610b9182610b48565b810181811067ffffffffffffffff82111715610bb057610baf610b59565b5b80604052505050565b6000610bc3610b2a565b9050610bcf8282610b88565b919050565b600067ffffffffffffffff821115610bef57610bee610b59565b5b610bf882610b48565b9050602081019050919050565b82818337600083830152505050565b6000610c27610c2284610bd4565b610bb9565b905082815260208101848484011115610c4357610c42610b43565b5b610c4e848285610c05565b509392505050565b600082601f830112610c6b57610c6a610b3e565b5b8135610c7b848260208601610c14565b91505092915050565b600073ffffffffffffffffffffffffffffffffffffffff82169050919050565b6000610caf82610c84565b9050919050565b610cbf81610ca4565b8114610cca57600080fd5b50565b600081359050610cdc81610cb6565b92915050565b600080600060608486031215610cfb57610cfa610b34565b5b600084013567ffffffffffffffff811115610d1957610d18610b39565b5b610d2586828701610c56565b935050602084013567ffffffffffffffff811115610d4657610d45610b39565b5b610d5286828701610c56565b9250506040610d6386828701610ccd565b9150509250925092565b6000819050919050565b610d8081610d6d565b82525050565b6000602082019050610d9b6000830184610d77565b92915050565b610daa81610ca4565b82525050565b610db981610d6d565b82525050565b600081519050919050565b600082825260208201905092915050565b60005b83811015610df9578082015181840152602081019050610dde565b60008484015250505050565b6000610e1082610dbf565b610e1a8185610dca565b9350610e2a818560208601610ddb565b610e3381610b48565b840191505092915050565b600060a083016000830151610e566000860182610da1565b506020830151610e696020860182610db0565b506040830151610e7c6040860182610db0565b5060608301518482036060860152610e948282610e05565b91505060808301518482036080860152610eae8282610e05565b9150508091505092915050565b60006020820190508181036000830152610ed58184610e3e565b905092915050565b7f4e487b7100000000000000000000000000000000000000000000000000000000600052601160045260246000fd5b6000610f1782610d6d565b9150610f2283610d6d565b9250828201905080821115610f3a57610f39610edd565b5b92915050565b7f4e487b7100000000000000000000000000000000000000000000000000000000600052602260045260246000fd5b60006002820490506001821680610f8757607f821691505b602082108103610f9a57610f99610f40565b5b50919050565b60008190508160005260206000209050919050565b60006020601f8301049050919050565b600082821b905092915050565b6000600883026110027fffffffffffffffffffffffffffffffffffffffffffffffffffffffffffffffff82610fc5565b61100c8683610fc5565b95508019841693508086168417925050509392505050565b6000819050919050565b600061104961104461103f84610d6d565b611024565b610d6d565b9050919050565b6000819050919050565b6110638361102e565b61107761106f82611050565b848454610fd2565b825550505050565b600090565b61108c61107f565b61109781848461105a565b505050565b5b818110156110bb576110b0600082611084565b60018101905061109d565b5050565b601f821115611100576110d181610fa0565b6110da84610fb5565b810160208510156110e9578190505b6110fd6110f585610fb5565b83018261109c565b50505b505050565b600082821c905092915050565b600061112360001984600802611105565b1980831691505092915050565b600061113c8383611112565b9150826002028217905092915050565b61115582610dbf565b67ffffffffffffffff81111561116e5761116d610b59565b5b6111788254610f6f565b6111838282856110bf565b600060209050601f8311600181146111b657600084156111a4578287015190505b6111ae8582611130565b865550611216565b601f1984166111c486610fa0565b60005b828110156111ec578489015182556001820191506020850194506020810190506111c7565b868310156112095784890151611205601f891682611112565b8355505b6001600288020188555050505b505050505050565b600082825260208201905092915050565b600061123a82610dbf565b611244818561121e565b9350611254818560208601610ddb565b61125d81610b48565b840191505092915050565b600060608201905061127d6000830186610d77565b818103602083015261128f818561122f565b905081810360408301526112a3818461122f565b905094935050505056fea2646970667358221220d1c53abb4f5082d240724ad07fd334a9c29dc3fcb0eecd7051d8011bc8ed879764736f6c63430008130033",
  "devdoc": {
    "author": "mohammad norouzi",
    "kind": "dev",
    "methods": {},
    "stateVariables": {
      "MINIMUN_COFFEE_PRICE": {
        "details": "set a minimum amount for coffe price"
      },
      "s_users": {
        "details": "Mapping of address to users struct"
      }
    },
    "title": "BuyMeACoffee contract",
    "version": 1
  },
  "userdoc": {
    "kind": "user",
    "methods": {},
    "notice": "This contract implements the BuyMeACoffee contract and its functionality as simple as possible",
    "version": 1
  },
  "storageLayout": {
    "storage": [
      {
        "astId": 43,
        "contract": "contracts/BuyMeACoffee.sol:BuyMeACoffee",
        "label": "s_users",
        "offset": 0,
        "slot": "0",
        "type": "t_mapping(t_address,t_struct(User)22_storage)"
      }
    ],
    "types": {
      "t_address": {
        "encoding": "inplace",
        "label": "address",
        "numberOfBytes": "20"
      },
      "t_mapping(t_address,t_struct(User)22_storage)": {
        "encoding": "mapping",
        "key": "t_address",
        "label": "mapping(address => struct BuyMeACoffee.User)",
        "numberOfBytes": "32",
        "value": "t_struct(User)22_storage"
      },
      "t_string_storage": {
        "encoding": "bytes",
        "label": "string",
        "numberOfBytes": "32"
      },
      "t_struct(Memo)33_storage": {
        "encoding": "inplace",
        "label": "struct BuyMeACoffee.Memo",
        "members": [
          {
            "astId": 24,
            "contract": "contracts/BuyMeACoffee.sol:BuyMeACoffee",
            "label": "from",
            "offset": 0,
            "slot": "0",
            "type": "t_address"
          },
          {
            "astId": 26,
            "contract": "contracts/BuyMeACoffee.sol:BuyMeACoffee",
            "label": "timestamp",
            "offset": 0,
            "slot": "1",
            "type": "t_uint256"
          },
          {
            "astId": 28,
            "contract": "contracts/BuyMeACoffee.sol:BuyMeACoffee",
            "label": "amount",
            "offset": 0,
            "slot": "2",
            "type": "t_uint256"
          },
          {
            "astId": 30,
            "contract": "contracts/BuyMeACoffee.sol:BuyMeACoffee",
            "label": "name",
            "offset": 0,
            "slot": "3",
            "type": "t_string_storage"
          },
          {
            "astId": 32,
            "contract": "contracts/BuyMeACoffee.sol:BuyMeACoffee",
            "label": "message",
            "offset": 0,
            "slot": "4",
            "type": "t_string_storage"
          }
        ],
        "numberOfBytes": "160"
      },
      "t_struct(User)22_storage": {
        "encoding": "inplace",
        "label": "struct BuyMeACoffee.User",
        "members": [
          {
            "astId": 16,
            "contract": "contracts/BuyMeACoffee.sol:BuyMeACoffee",
            "label": "userAddress",
            "offset": 0,
            "slot": "0",
            "type": "t_address"
          },
          {
            "astId": 18,
            "contract": "contracts/BuyMeACoffee.sol:BuyMeACoffee",
            "label": "userBalance",
            "offset": 0,
            "slot": "1",
            "type": "t_uint256"
          },
          {
            "astId": 21,
            "contract": "contracts/BuyMeACoffee.sol:BuyMeACoffee",
            "label": "lastMemo",
            "offset": 0,
            "slot": "2",
            "type": "t_struct(Memo)33_storage"
          }
        ],
        "numberOfBytes": "224"
      },
      "t_uint256": {
        "encoding": "inplace",
        "label": "uint256",
        "numberOfBytes": "32"
      }
    }
  }
}